:100000000C9434000C944F000C944F000C944F004F
:100010000C944F000C944F000C944F000C944F0024
:100020000C944F000C944F000C944F000C94D7008C
:100030000C944F000C944F000C944F000C944F0004
:100040000C944F000C944F000C94AF000C944F0094
:100050000C944F000C944F000C944F000C944F00E4
:100060000C944F000C944F0011241FBECFEFD4E02E
:10007000DEBFCDBF11E0A0E0B1E0ECEFF5E002C0E3
:1000800005900D92A030B107D9F711E0A0E0B1E0E2
:1000900001C01D92AD37B107E1F70C94B3020C9487
:1000A000000080910A0190910B0183309105C1F10C
:1000B000843091054CF48130910591F182309105A5
:1000C000C4F4009769F044C08530910549F185304A
:1000D00091057CF08630910561F0079709F138C0F1
:1000E0009093090180930801909307018093060182
:1000F00008C0109209011092080110920701109295
:10010000060184E690E0909305018093040188E362
:100110009FEF9093030180930201109201010895D3
:100120008AE590E090930901809308018FEF9FEF9B
:10013000909307018093060110920501109204012B
:10014000109203011092020181E080930101089551
:100150008FEF9FEF90930B0180930A0108951F92F8
:100160000F920FB60F9211248F939F93EF93FF93EB
:100170009091C60080911101882381F08091100137
:10018000E82FFF27EB5EFE4F90838F5F8093100177
:1001900080911001843310F010921101FF91EF91C2
:1001A0009F918F910F900FBE0F901F9018951F92E7
:1001B0000F920FB60F9211248F939F93809113018A
:1001C00090911401892B51F08091130190911401A9
:1001D0000197909314018093130102C010921201B1
:1001E0009F918F910F900FBE0F901F901895982F91
:1001F0008091C00085FFFCCF9093C600089589E8E8
:100200000E94F70080E00E94F70080E00E94F70063
:1002100080E80E94F70080E00E94F700089521E046
:100220002093120190931401809313018091120185
:10023000882309F442C0809111018823B9F7A5E110
:10024000B1E0E9E4F1E093E38D918193915097FF60
:10025000FBCF809155019927382F22278091560195
:100260009927282B392B80910E0190910F01820F35
:10027000931F90930F0180930E018091570199274E
:10028000382F2227809158019927282B392B8091CC
:100290000C0190910D01820F931F90930D0180939B
:1002A0000C018EE80E94F70086E00E94F700109291
:1002B000100181E080931101B9CF08959C0181E084
:1002C0008093120130931401209313018091120145
:1002D0008823E1F708951D9913C01D990DC05F98FB
:1002E00084EF91E00E945E015F9A84E690E00E94B4
:1002F0005E015F981D9BF3CF8CEA9DE00E945E013A
:100300000895CF93C82F8C3008F054C081E80E9424
:10031000F7008091C00080648093C0008C2F0E9401
:10032000F7008091C00086FFFCCFF894CB3019F421
:1003300089E090E036C0CA3019F483E190E031C022
:10034000C93019F48DE190E02CC0C83019F487E26F
:1003500090E027C0C73019F48BE390E022C0C6308C
:1003600019F48FE490E01DC0C53019F487E790E0E0
:1003700018C0C43019F48FEE90E013C0C33019F4E4
:100380008FED91E00EC0C23019F48FEB93E009C0FD
:10039000C13019F48FE797E004C0CC2331F48FEF1C
:1003A0009EE09093C5008093C400789484E690E02A
:1003B0000E945E01CF910895F89480E184B98FEC9A
:1003C00085B917B88FEF88B986EE8AB98DE78BB9F2
:1003D000109280008CE08093810087E490E09093FD
:1003E00089008093880082E080936F0083E190E031
:1003F0009093C5008093C40088E98093C10086E093
:100400008093C20078948BB180668BB90E946B0197
:1004100080E80E94F70088E00E94810182E80E9443
:10042000F70084E80E94F7000895EF92FF920F937F
:100430001F938C017B0189E80E94F700812F992787
:1004400087FD9A950E94F700802F0E94F7008F2D5C
:10045000992787FD9A950E94F7008E2D0E94F7003C
:100460001F910F91FF90EF90089510920901109243
:1004700008011092070110920601109205011092D6
:1004800004011092030110920201109201011092D6
:10049000000110920F0110920E0110920D011092A6
:1004A0000C0180910A0190910B01019690930B0130
:1004B00080930A010E9451000895809101018823D0
:1004C00071F18091060190910701892B81F02091B3
:1004D0000C0130910D018091080190910901821762
:1004E000930714F40E94350261E070E013C080911C
:1004F0000C0190910D0122273327281B390B809185
:100500000801909109018217930714F40E943502A3
:100510006FEF7FEF88EC90E00E94150208958091C4
:10052000020190910301181619062CF420910E0176
:1005300030910F0108C080910E0190910F01222788
:100540003327281B390B80910401909105018217F4
:10055000930714F40E94350260E070E88091020174
:1005600090910301D9CFCFEFD4E0DEBFCDBF0E9481
:10057000DC010E94FF00C1E0D0E08BB18F798BB924
:1005800084EF91E00E940F018BB180668BB984EFFC
:1005900091E00E940F012197D7FFEFCF84EF91E008
:1005A0000E940F010E94510006C00E945D0284E17A
:1005B00090E00E940F014C9B1AC080914B01882350
:1005C000B1F480914C01882391F480914D018823EE
:1005D00071F480914E01882351F480917001882339
:1005E00031F480910A0190910B019923F4F60E9455
:0C05F000FF0080E090E00C94FD02FFCFC3
:00000001FF
